{
  "_format": "hh-sol-artifact-1",
  "contractName": "SecureDiceRoller",
  "sourceName": "contracts/SecureDiceRoller.sol",
  "abi": [
    {
      "inputs": [],
      "stateMutability": "nonpayable",
      "type": "constructor"
    },
    {
      "anonymous": false,
      "inputs": [
        {
          "indexed": true,
          "internalType": "address",
          "name": "player",
          "type": "address"
        },
        {
          "indexed": true,
          "internalType": "uint256",
          "name": "requestId",
          "type": "uint256"
        },
        {
          "indexed": false,
          "internalType": "uint8",
          "name": "die1",
          "type": "uint8"
        },
        {
          "indexed": false,
          "internalType": "uint8",
          "name": "die2",
          "type": "uint8"
        },
        {
          "indexed": false,
          "internalType": "uint8",
          "name": "total",
          "type": "uint8"
        }
      ],
      "name": "DiceRolled",
      "type": "event"
    },
    {
      "inputs": [],
      "name": "nextRequestId",
      "outputs": [
        {
          "internalType": "uint256",
          "name": "",
          "type": "uint256"
        }
      ],
      "stateMutability": "view",
      "type": "function"
    },
    {
      "inputs": [],
      "name": "randomV2",
      "outputs": [
        {
          "internalType": "contract RandomNumberV2Interface",
          "name": "",
          "type": "address"
        }
      ],
      "stateMutability": "view",
      "type": "function"
    },
    {
      "inputs": [],
      "name": "rollDice",
      "outputs": [
        {
          "internalType": "uint256",
          "name": "requestId",
          "type": "uint256"
        },
        {
          "internalType": "uint8",
          "name": "die1",
          "type": "uint8"
        },
        {
          "internalType": "uint8",
          "name": "die2",
          "type": "uint8"
        },
        {
          "internalType": "uint8",
          "name": "total",
          "type": "uint8"
        }
      ],
      "stateMutability": "nonpayable",
      "type": "function"
    }
  ],
  "bytecode": "0x60a060405260015f55348015610013575f80fd5b5061001c61002d565b6001600160a01b0316608052610128565b5f73ad67fe66660fb8dfe9d6b1b4240d8650e30f60196001600160a01b031663159354a2604051602001610083906020808252600e908201526d2930b73237b6a73ab6b132b92b1960911b604082015260600190565b604051602081830303815290604052805190602001206040518263ffffffff1660e01b81526004016100b791815260200190565b602060405180830381865afa1580156100d2573d5f803e3d5ffd5b505050506040513d601f19601f820116820180604052508101906100f691906100fb565b905090565b5f6020828403121561010b575f80fd5b81516001600160a01b0381168114610121575f80fd5b9392505050565b6080516103bf6101455f395f81816094015260d601526103bf5ff3fe608060405234801561000f575f80fd5b506004361061003f575f3560e01c80636a84a98514610043578063837e7cc61461005e578063c0c2fb401461008f575b5f80fd5b61004b5f5481565b6040519081526020015b60405180910390f35b6100666100ce565b6040805194855260ff938416602086015291831691840191909152166060820152608001610055565b6100b67f000000000000000000000000000000000000000000000000000000000000000081565b6040516001600160a01b039091168152602001610055565b5f805f805f807f00000000000000000000000000000000000000000000000000000000000000006001600160a01b031663dbdff2c16040518163ffffffff1660e01b8152600401606060405180830381865afa158015610130573d5f803e3d5ffd5b505050506040513d601f19601f8201168201806040525081019061015491906102b7565b5091509150806101b55760405162461bcd60e51b815260206004820152602260248201527f466c6172652072616e646f6d206e756d626572206e6f74207365637572652079604482015261195d60f21b606482015260840160405180910390fd5b5f805490806101c383610305565b9190505595505f82873360405160200161020293929190928352602083019190915260601b6bffffffffffffffffffffffff1916604082015260540190565b60408051601f1981840301815291905280516020909101209050610227600682610331565b610232906001610344565b95506006610240818361035d565b61024a9190610331565b610255906001610344565b94506102618587610370565b6040805160ff898116825288811660208301528316818301529051919550889133917fca2730f7fd6c008fad04c2784a8238b22d8cd454eb193b31d31e9f8c04ced8ee919081900360600190a350505090919293565b5f805f606084860312156102c9575f80fd5b83519250602084015180151581146102df575f80fd5b80925050604084015190509250925092565b634e487b7160e01b5f52601160045260245ffd5b5f60018201610316576103166102f1565b5060010190565b634e487b7160e01b5f52601260045260245ffd5b5f8261033f5761033f61031d565b500690565b80820180821115610357576103576102f1565b92915050565b5f8261036b5761036b61031d565b500490565b60ff8181168382160190811115610357576103576102f156fea2646970667358221220649da4a7b6879c4386d3667677116620289865ab818b6b5ced42624a822af51464736f6c63430008190033",
  "linkReferences": {},
  "deployedLinkReferences": {}
}